:020000040800F2
:10000000D80F00204D2F0008D5020008D7020008A5
:10001000DB020008DF020008E30200080000000025
:10002000000000000000000000000000E7020008DF
:10003000E902000800000000EB020008ED020008E1
:10004000672F0008672F0008672F0008672F000838
:10005000672F0008672F0008672F0008672F000828
:10006000672F0008672F0008672F0008672F000818
:10007000672F0008672F0008FD3F0008672F000862
:10008000672F0008672F0008672F0008672F0008F8
:10009000672F0008672F0008672F0008672F0008E8
:1000A000672F0008672F0008672F0008672F0008D8
:1000B000672F0008672F0008672F0008672F0008C8
:1000C000672F0008672F0008672F0008672F0008B8
:1000D000672F00083F5C0008672F000835410008C3
:1000E000672F0008672F0008672F000843470008A4
:1000F000672F0008672F0008672F0008672F000888
:10010000672F0008672F0008672F0008672F000877
:10011000672F0008672F0008672F0008672F000867
:10012000672F0008672F0008672F0008672F000857
:10013000672F0008672F0008672F0008D903000801
:10014000EF030008672F0008672F0008672F0008DB
:10015000672F0008672F0008672F0008672F000827
:10016000672F0008672F0008672F0008672F000817
:10017000672F0008672F0008672F0008672F000807
:10018000672F0008672F0008DFF80CD008F0E0FAAE
:1001900000480047A7010008D80F002000E0401EDB
:1001A0000028FCDC70471FB5424B0FCB8DE80F00D9
:1001B0004FF480604049088048808880C8800020D3
:1001C00088723E49087005F0D9F9A82004F050F96A
:1001D0003B48B0F87400012803D107F0BDFB07F0DD
:1001E00099FB03F0F7FD03F029FE00F081F80020F1
:1001F00005F00BFE4FF47A7004F09AF905F09AFCC2
:1002000004F046FC04F008FB04F0A2FB04F0B0F993
:100210004FF47A7004F08CF907F050F804F0C5F947
:1002200046E0012005F07AF82648B0F90A0003EE0E
:10023000100AB8EEC33AF0EE432A2248B0F908009B
:1002400003EE100AB8EEC33AB0EE432A1D48B0F9E7
:10025000060003EE100AB8EEC33AF0EE431A19484E
:1002600090ED113AB0EE431A90ED103AF0EE430AD9
:1002700090ED0F3AB0EE430A07F05CF804F0BAFDD7
:10028000114890ED0E0A114880ED000A0E4890EDDD
:10029000080A0E4880ED010A0D4890ED0E0A0B4841
:1002A00080ED020A0A4890ED080A084880ED030A2A
:1002B000B7E70000DC9D0008B205002028010020FF
:1002C000249E0008D0030020E8040020C003002082
:1002D00038050020704700BFFEE700BFFEE700BF03
:1002E000FEE700BFFEE770477047704770470000A9
:1002F00000B58BB00121022001F0E0F90121480690
:1003000001F00FFA0121880601F00BFA09220D21F4
:100310008E4802F000F909220C218C4802F0FBF80B
:100320004FF44050029002208DF80C0002A987483B
:1003300002F066F840208DF8040000208DF80500DA
:1003400001208DF806008DF8070001A800F071F972
:100350007F4801F0F1FA08A801F012FC00208DF8A6
:1003600026008DF827008DF828008DF829008DF8DB
:100370002A008DF82B008DF822008DF8230008202C
:100380008DF8240003208DF82500ADF8200008A981
:100390006F4801F0EAFA0E208DF81A0000208DF85F
:1003A0001B0001208DF81C000020ADF81000ADF8F6
:1003B0001200ADF81400ADF81600ADF818000120D9
:1003C0008DF81D0004A801F05AFB012202216048AB
:1003D00001F054FE0BB000BD10B501215C4801F0E6
:1003E000B4FE18B101215A4801F049FF10BD10B503
:1003F0000221574801F0A9FE00285ED0022154488E
:1004000001F03DFF534A0021514801F01CFD5148C5
:100410000068A0F5007106390DD14E48017BC07A05
:1004200001EB002000B24C490883142249494B4893
:1004300007F07EFE41E047480068A0F500710539ED
:1004400011D14448017BC07A01EB002000B244493D
:100450004880084640884349088314223D49424861
:1004600007F066FE29E03B480068B0F5007F24D91C
:1004700038480068B0F5017F1FD83648017BC07A44
:1004800001EB002000EE100AB8EEC00A3148006807
:10049000A0F20120354901EB800080ED000A2D48D3
:1004A000817B407B01EB002002B22A480068A0F269
:1004B00001202E49303121F8102010BD2DE9F041E6
:1004C00088B007468846019700208DF80C008DF80B
:1004D0000D0008208DF80E00002421E008EB8400B8
:1004E00090ED000ABDEEC00A10EE100A00B206A997
:1004F00021F8140006A830F81400C0F307210020EA
:1005000000EB44020DF10F00815406A810F81410FE
:10051000012000EB44020DF10F008154601C44B235
:10052000042CDBDB01A90A4801F098FB05460026F4
:1005300000E0761C2946064801F028FC012802D07C
:10054000B6F57A6FF5DB08B0BDE8F0810004024033
:1005500000680040E4020020E8040020BC02002003
:100560000006002038050020D00200203C060020B4
:10057000F0EE401AB0EE602A10B9B0EE610A704792
:10058000F4EEC21AF1EE10FA02DDF0EE420A09E0D2
:10059000F4EEC11AF1EE10FA02D2F0EE410A01E0D7
:1005A000F0EE610AB0EE600AE9E730B50446F0EE1D
:1005B000400A002014B9B0EE600A30BD002028E0E7
:1005C000F5EEC00AF1EE10FA02DDB0EE600A01E0CD
:1005D000B1EE600A03EB800595ED011AB4EEC10A95
:1005E000F1EE10FA13D2F5EEC00AF1EE10FA02DDC8
:1005F000B0EE600A01E0B1EE600A03EB800595ED14
:10060000001AB4EEC10AF1EE10FA00DB04E0451C5A
:10061000E8B24D1E8542D3DC00BF02EB800595EDAC
:10062000000A20EE200AC8E733490143334A11602B
:10063000704770B5002100230F22C47824B32F4CDB
:10064000246804F4E064C4F5E064C4F30721C1F154
:100650000404E3B20A4144789C40E1B28478144037
:1006600021430C07210E264C05786155047804F0CF
:100670001F050124AC4005786D114FF0E02606EB14
:100680008505C5F8004109E0047804F01F04012540
:10069000A5401C4C0678761144F8265070BD1A4AC5
:1006A0000A400243154B1B1F1A60704739B1134AA9
:1006B000121D12680243114B1B1D1A6006E00F4AFF
:1006C000121D126882430D4B1B1D1A6070470428CF
:1006D00008D14FF0E021096941F004014FF0E02218
:1006E000116107E04FF0E021096921F004014FF0AA
:1006F000E0221161704700000000FA050CED00E0F7
:1007000000E400E080E100E080FFFF1F10B5044638
:10071000FE48844208D10121084601F07BF80021FF
:10072000012001F077F89DE0B4F1804F08D101215C
:10073000084601F05EF80021012001F05AF891E02E
:10074000F348844208D10121022001F052F800212F
:10075000022001F04EF885E0EE48844208D10121E4
:10076000042001F046F80021042001F042F879E06D
:10077000E948844208D10121082001F03AF800211B
:10078000082001F036F86DE0E448844208D10121E8
:10079000102001F02EF80021102001F02AF861E06D
:1007A000DF48844208D10121202001F022F80021F5
:1007B000202001F01EF855E0DA48844208D10121DA
:1007C000022001F027F80021022001F023F849E07F
:1007D000D548844209D10121080401F01BF8002109
:1007E0004FF4803001F016F83CE0D048844209D143
:1007F0000121480401F00EF800214FF4003001F00F
:1008000009F82FE0CA48844209D10121880401F087
:1008100001F800214FF4802000F0FCFF22E0C548E1
:10082000844208D10121402000F0E3FF0021402054
:1008300000F0DFFF16E0C048844208D1012180208B
:1008400000F0D7FF0021802000F0D3FF0AE0BB4872
:10085000844207D10121801500F0CBFF0021A015B3
:1008600000F0C7FF10BD00220288A84B98420ED0AE
:10087000AC4B98420BD0B0F1804F08D0A44B9842BB
:1008800005D0A44B984202D0A34B984204D14FF616
:100890008F731A404B881A43A04B984207D0A04B45
:1008A000984204D04FF6FF431A400B891A43028046
:1008B0004B68C3620B880385944B984202D0994BD6
:1008C000984201D18B7A03860123838270474FF0CF
:1008D000FF314160002101800181418081727047B8
:1008E0000185828270470A46002101884FF68F7386
:1008F000194011430180704741627047C1627047DF
:100900000146486A70470146088D704721B1028848
:1009100042F00202028004E002884FF6FD731A40A2
:100920000280704721B1028842F00402028004E094
:1009300002884FF6FB731A400280704721B102888B
:1009400042F08002028004E002884FF67F731A4072
:100950000280704702884FF6F7731A4002800288BF
:100960000A430280704702884FF6FF431A40028014
:1009700002880A430280704721B1028842F00102D6
:10098000028004E002884FF6FE731A40028070472E
:1009900070B5002400220023058C4FF6FE7635400A
:1009A0000584028C8388048B4FF68F752C40B51E0E
:1009B0002C400D882C43751E2A408D892A434D8872
:1009C0002A43524DA84202D0564DA84213D14FF6A9
:1009D000F7752A40CD892A434FF6FB752A408D884A
:1009E0002A434FF6FF652B404FF6FF552B400D8AEB
:1009F0002B434D8A2B43838004838D684563028497
:100A000070BD70B5002400220023058C4FF6EF76F0
:100A100035400584028C8388048B48F6FF752C4092
:100A20004FF6FF452C400D884FF6FF7606EA052568
:100A30002C434FF6DF752A408D8906EA05152A43B7
:100A40004D8806EA05152A43304DA84202D0354D9F
:100A5000A8421DD14FF67F752A40CD894FF6FF760B
:100A600006EA05152A434FF6BF752A408D8806EA27
:100A700005152A434FF6FF352B404FF2FF752B40EB
:100A80000D8A06EA85052B434D8A06EA85052B4328
:100A9000838004838D688563028470BD70B50024F3
:100AA00000220023058C4FF6FF6635400584028C3A
:100AB0008388848B4FF68F752C404FF6FC752C4045
:100AC0000D882C434FF6FF552A408D894FF6FF764F
:100AD00006EA05252A434D8806EA05252A430B4DDB
:100AE000A84202D00F4DA84238D14FF2FF752A40DC
:100AF000CD894FF6FF7606EA05252A434FF6FF35E6
:100B00002A408D8806EA05252A4319E000000140A5
:100B10000004004000080040000C004000100040AD
:100B20000014004000040140004001400044014026
:100B30000048014000180040001C00400020004018
:100B40004EF6FF752B404DF6FF752B400D8A06EAD9
:100B500005152B434D8A06EA05152B4383808483B4
:100B60008D68C563028470BD70B500220023002427
:100B7000058C4EF6FF7635400584038C8488828B85
:100B800048F6FF752A404FF6FF452A400D884FF67C
:100B9000FF7606EA05252A434DF6FF752B408D8921
:100BA00006EA05352B434D8806EA05352B43FE4DF5
:100BB000A84202D0FD4DA84208D14BF6FF752C404B
:100BC0000D8A4FF6FF7606EA85152C4384808283D2
:100BD0008D680564038470BD00210180418081809F
:100BE00081608181C18101824182704770B5034675
:100BF000002000241846183001258D40ACB21D8C11
:100C0000A5431D8409B108290AD100EB61000568DC
:100C10004FF68F76354005600568154305600FE097
:100C20000D1FC5F34E052844056848F6FF7635408C
:100C3000056005684FF6FF7606EA02263543056033
:100C400070BD4163704781637047C1637047016441
:100C500070470A460021018B4FF68F7319401143EC
:100C6000018370470A460021018B48F6FF73194043
:100C70004FF6FF7303EA02231943018370470A46C4
:100C80000021818B4FF68F73194011438183704788
:100C90000A460021818B48F6FF7319404FF6FF7317
:100CA00003EA02231943818370470A460021018B1E
:100CB0004FF6F77319401143018370470A4600212C
:100CC000018B4FF2FF7319404FF6FF7303EA0223C3
:100CD0001943018370470A460021818B4FF6F77351
:100CE00019401143818370470A460021818B4FF2DE
:100CF000FF7319404FF6FF7303EA02231943818300
:100D000070470A460021018B4FF6FB7319401143CF
:100D1000018370470A460021018B4FF6FF331940CB
:100D20004FF6FF7303EA02231943018370470A4613
:100D30000021818B4FF6FB7319401143818370476B
:100D40000A460021818B4FF6FF3319404FF6FF739F
:100D500003EA02231943818370470A460021018B6D
:100D60004FF67F7319401143018370470A460021F3
:100D7000018BC1F30E014FF6FF7303EA02231943FF
:100D8000018370470A460021818B4FF67F7319401B
:100D90001143818370470A460021818BC1F30E0104
:100DA0004FF6FF7303EA02231943818370470A4613
:100DB0000021018C4FF6FD731940114301847047E7
:100DC0000A460021018C4FF6F77319401143018444
:100DD00070470A460021018C4FF6DF7319404FF629
:100DE000FF7303EA02131943018470470A46002186
:100DF000018C4FF67F7319404FF6FF7303EA02131D
:100E00001943018470470A460021018C4FF6FF53B5
:100E100019404FF6FF7303EA022319430184704718
:100E20000A460021018C4FF2FF7319404FF6FF7301
:100E300003EA02231943018470470A460021018C0A
:100E40004DF6FF7319404FF6FF7303EA023319435F
:100E50000184704730B5002301248C40A3B2048C78
:100E60009C430484048C02FA01F5ADB22C43048443
:100E700030BD30B5002304248C40A3B2048C9C43C5
:100E80000484048C02FA01F5ADB22C43048430BD15
:100E9000828B4FF2FF331A408283828B4FF6FF73AF
:100EA00003EA01231A4382837047F0B50C461546C6
:100EB000002100220026078C4EF6FF7C07EA0C0773
:100EC0000784818B028C4FF6FF7707EA043640F6E1
:100ED000FF4739404FF6FF7707EA052739434FF6BA
:100EE000FF7707EA0337394345F6FF773A4046F480
:100EF00080573A4381830284F0BD828B4FF6F373AF
:100F00001A408283828B0A4382837047F0B50C4675
:100F10001546002100220026078C4FF6FF6C07EAD9
:100F20000C070784818B028C4FF6FF7707EA0426B3
:100F30004FF60C7739404FF6FF7707EA03172F4338
:100F400039434FF2FF573A4046F480773A43818362
:100F50000284F0BD028B4FF2FF331A400283028BF2
:100F60004FF6FF7303EA01231A4302837047F0B57B
:100F70000C461546002100220026078C4FF6EF7C18
:100F800007EA0C070784018B028C4FF6FF7707EA0C
:100F9000041640F6FF4739404FF6FF7707EA03375C
:100FA00039434FF6FF7703E00000014000040140A1
:100FB00007EA052739434FF65F773A4046F01007B6
:100FC0003A4301830284F0BD028B4FF6F3731A405B
:100FD0000283028B0A4302837047F0B50C46154624
:100FE00000210022068C4FF6FE773E400684018BDE
:100FF000028C4FF60C7631407E1C06EA03162E4317
:1010000031434FF6F576324044F001063243018316
:101010000284F0BD70B505460C46208850B923897E
:10102000A28861882846FFF7D8FFE1882846FFF7A5
:10103000CBFF25E0208804280AD12389A288618873
:101040002846FFF794FFE1882846FFF783FF17E063
:10105000208808280AD12389A28861882846FFF7BA
:1010600055FFE1882846FFF748FF09E02389A28859
:1010700061882846FFF719FFE1882846FFF708FF37
:1010800070BD002101804180012181800021C1804B
:10109000018170472DE9F04105460C4600260127E5
:1010A000608808B9022600E00026A088012801D146
:1010B000022700E001272088A0B92389A28861883F
:1010C0002846FFF78AFFE1882846FFF77DFF23893E
:1010D0003A4631462846FFF74AFFE1882846FFF79F
:1010E00039FF13E02389A28861882846FFF73FFF74
:1010F000E1882846FFF72EFF23893A4631462846E5
:10110000FFF76BFFE1882846FFF75EFFBDE8F0813F
:101110000146486B70470146886B70470146C86BB3
:1011200070470146086C70470A884B881A438B88C1
:101130001A43CB881A430B891A434B891A438B896C
:101140001A43A0F84420704700210180418081802B
:10115000C180018141818181704731B1B0F8442063
:1011600042F40042A0F8442005E0B0F84420C2F365
:101170000E02A0F84420704721B1828842F0040298
:10118000828004E082884FF6FB731A4082807047A9
:1011900021B1828842F00102828004E082884FF609
:1011A000FE731A40828070471AB183890B43838192
:1011B00002E083898B4383817047818270470246B6
:1011C0000020138A0B4201D0012000E0002070476C
:1011D000CA430282704730B5024600200023002433
:1011E000158A05EA0103958905EA010413B10CB1DA
:1011F000012000E0002030BDCA430282704741EA6E
:101200000203A0F8483070471AB183890B438381E9
:1012100002E083898B438381704721B1828842F049
:101220000802828004E082884FF6F7731A408280B9
:10123000704701894FF6F8721140018170470A46E4
:10124000002101894FF68F731940114301817047C6
:1012500030B504460D4629462046FFF7F0FF2089A9
:1012600040F00700208130BD2DE9F04104460D46D5
:1012700016461F46602D06D13B46012231462046C8
:10128000FFF775FE05E03B46012231462046FFF799
:10129000A4FE29462046FFF7D2FF208940F0070030
:1012A0002081BDE8F08130B50C4600210189C9B22A
:1012B0004FF6FF7505EA03251543254329430181B0
:1012C00030BD2DE9F04105460E46174698460024EC
:1012D00043463A4631462846FFF7E5FF2C894FF64C
:1012E000F870044044F007044FF68F70044044F057
:1012F00070042C81BDE8F081F0B504460D46164619
:101300001F463B46324629462046FFF7CCFF208940
:1013100040F480402081F0BD82884FF68F731A40E0
:10132000828082880A438280704702894FF6F87370
:101330001A40028102890A430281704702894FF6EE
:101340007F731A40028102890A4302817047F0B517
:101350000C4615461E460021002200230189028BFF
:10136000038C4FF6F877394021434FF6FC473A405B
:1013700040F201173A434FF6DD773B404FF6FF77D7
:1013800007EA06172F433B43018102830384F0BD24
:1013900021B1828842F08002828004E082884FF688
:1013A0007F731A4082807047A0F850107047000089
:1013B000FA48006840F00100F84908600020F74949
:1013C00008310860F5480068F5490840F3490860AD
:1013D000F448091D0860081F006820F48020091FD8
:1013E00008600020ED490C31086070470021EB4A8D
:1013F000921C117011460870704710B5014600220A
:10140000002300204A11012A02D1E44C236808E09D
:10141000022A03D1E14C7034236802E0DF4C7434BB
:10142000236801F01F02012494401C4201D00120D6
:1014300000E0002010BD38B50020009000240025F9
:1014400000BF3120FFF7D9FF05460098401C0090EF
:101450000098B0F5706F01D0002DF2D03120FFF769
:10146000CCFF08B1012400E00024204638BD01462D
:101470000020CA4A106820F0F80040EAC10010605D
:101480007047C949086070470021C44A7032117022
:101490001170012802D004280AD104E00121BF4ABA
:1014A0007032117005E00521BC4A7032117000E005
:1014B00000BF00BF7047BD490860704770B5049C0D
:1014C00041EA82150126C6EB530645EA0645054367
:1014D00045EA0465B14E361D356070BDB2490866F7
:1014E0007047820142EA0172AC4B84331A60704744
:1014F000AD4988667047AC49C86470470246002011
:10150000A64B0833186820F0EC6042EA0103184348
:10151000A24B083318607047024600209F4B0833E7
:10152000186820F0784042EA010318439B4B0833C7
:101530001860704701460020984A0832106820F071
:10154000030008431060704794480830006800F0BA
:101550000C00704701460020904A0832106820F0C5
:10156000F000084310607047014600208B4A0832A3
:10157000106820F4E05008431060704701460020D6
:10158000864A0832106820F4604040EAC1001060CA
:101590007047F0B500210022002402250026022316
:1015A0007E4F08373F6807F00C0121B1042905D0B0
:1015B000082937D105E07E4F076036E07D4F076090
:1015C00033E0764F3F1D3F68C7F38056734F3F1D92
:1015D0003F6807F03F036EB1764FB7FBF3F7DFF8D4
:1015E000BCC10CF1040CDCF800C0CCF3881C07FB78
:1015F0000CF40CE06E4FB7FBF3F7DFF8A0C10CF171
:10160000040CDCF800C0CCF3881C07FB0CF4634F1F
:101610003F1D3F68C7F301477F1C7D00B4FBF5F712
:10162000076002E0624F076000BF00BF5B4F0837F2
:101630003F6807F0F00109095F4F7A5C0768D740FF
:101640004760564F08373F6807F4E051890A5A4F00
:101650007A5C4768D7408760504F08373F6807F487
:101660006041490B544F7A5C4768D740C760F0BD72
:10167000002100F44072B2F5407F0AD1474A083297
:10168000116821F4F8114D4A02401143434A0832CF
:101690001160424A70321268C0F30B031A433F4B89
:1016A00070331A60704741494439086070473F49B8
:1016B00040390860704742490860704739B1374A7D
:1016C000303212680243354B30331A6006E0334A39
:1016D000303212688243314B30331A60704739B16F
:1016E0002E4A3432126802432C4B34331A6006E01F
:1016F0002A4A343212688243284B34331A607047C6
:1017000039B1264A383212680243244B38331A6002
:1017100006E0224A383212688243204B38331A607E
:10172000704739B11D4A4032126802431B4B4033A7
:101730001A6006E0194A403212688243174B403360
:101740001A60704739B1154A443212680243134B8C
:1017500044331A6006E0114A4432126882430F4B48
:1017600044331A60704739B10C4A10321268024390
:101770000A4B10331A6006E0084A1032126882439E
:10178000064B10331A607047E1B1044A14321268F4
:101790000243024B14331A6019E000000038024083
:1017A000FFFFF6FE1030002400004742800E474243
:1017B0000024F40040787D0100000020FFFCFF0FB2
:1017C0005C0147425B4A126882435A4B1A60704779
:1017D00039B1584A121D12680243564B1B1D1A603C
:1017E00006E0544A121D12688243524B1B1D1A60B8
:1017F000704739B14F4A0C32126802434D4B0C33DB
:101800001A6006E04B4A0C3212688243494B0C3393
:101810001A60704739B1474A103212680243454B8B
:1018200010331A6006E0434A103212688243414B7B
:1018300010331A60704739B13E4A3C321268024395
:101840003C4B3C331A6006E03A4A3C321268824311
:10185000384B3C331A60704739B1364A403212680F
:101860000243344B40331A6006E0324A4032126879
:101870008243304B40331A60704739B12D4A4432AD
:10188000126802432B4B44331A6006E0294A443263
:1018900012688243274B44331A60704739B1254A96
:1018A0004C3212680243234B4C331A6006E0214A43
:1018B0004C32126882431F4B4C331A60704739B167
:1018C0001C4A5032126802431A4B50331A6006E029
:1018D000184A503212688243164B50331A607047D0
:1018E00039B1144AD21F12780243124BDB1F1A700F
:1018F00006E0104AD21F127882430E4BDB1F1A708B
:1019000070470C486030006840F0807009496031D1
:101910000860704701460020064A083A12680A42E9
:1019200001D0012000E0002070470249891F0870A3
:10193000704700001438024010B50446FE48844247
:1019400009D101214806FFF754FF00214FF0007034
:10195000FFF74FFF08E001218806FFF74AFF00214B
:101960004FF08060FFF745FF10BD30B50246002004
:101970000023146824F002041460146844F0010485
:10198000146000E05B1C546814F0010F03D1A3F550
:101990007F44FF3CF6D1546814F0010F01D10020C0
:1019A0006CE08C79012C04D1146844F0800414603C
:1019B00003E0146824F080041460CC79012C04D175
:1019C000146844F04004146003E0146824F04004F8
:1019D00014600C7A012C04D1146844F020041460C3
:1019E00003E0146824F0200414604C7A012C04D124
:1019F000146844F01004146003E0146824F0100428
:101A000014608C7A012C04D1146844F0080414602A
:101A100003E0146824F008041460CC7A012C04D18B
:101A2000146844F00404146003E0146824F004040F
:101A300014608C78A407CD7844EA05640D7944EAF3
:101A400005444D7944EA05540D886D1E2C43D4613C
:101A5000146824F001041460002300E05B1C546847
:101A600014F0010F03D0A3F57F44FF3CF6D1546876
:101A700014F0010F01D0002000E0012030BD10B5AE
:101A80000021837A012202FA03F1AC4A126842F083
:101A90000102AA4B1A60A94A1C3212688A43A74B5A
:101AA0001C331A60027BCAB9A44A0C3212688A43FA
:101AB000A24B0C331A604288C38842EA03439F4A10
:101AC0004032847A42F834300288838842EA034301
:101AD0009A4A4032847A02EBC4025360027B012AA4
:101AE00019D1964A0C3212680A43944B0C331A608F
:101AF0004288038842EA0343904A4032847A42F89B
:101B00003430C288838842EA03438C4A4032847A64
:101B100002EBC4025360C27A3AB9884A121D1268B5
:101B20008A43864B1B1D1A6006E0844A121D126808
:101B30000A43824B1B1D1A60028932B97F4A143254
:101B400012688A437D4B14331A600289012A06D138
:101B50007A4A143212680A43784B14331A60427B73
:101B6000012A06D1754A1C3212680A43734B1C3392
:101B70001A60724A126822F00102704B1A6010BD9E
:101B800000218171C171017241728172C1728170D3
:101B9000C17003210171022141710121018070474F
:101BA0006649096841F00101644A116011460968FB
:101BB00043F60E729143614A11601146096841EA89
:101BC000002111601146096821F001011160704780
:101BD00021B1026842F48032026003E0026822F41C
:101BE000803202607047E1B1026842F08002026018
:101BF0004FF4C272125842F480734FF4C272135001
:101C00004FF4CA72125842F480734FF4CA721350E0
:101C10004FF4D272125842F480734FF4D2721350C0
:101C20001BE0026822F0800202604FF4C272125878
:101C300022F480734FF4C27213504FF4CA721258D8
:101C400022F480734FF4CA7213504FF4D2721258B8
:101C500022F480734FF4D2721350704710B50246CD
:101C60000020936803F08063B3F1806F00D110E02F
:101C7000936803F00063B3F1006F01D1012008E025
:101C8000936803F08053B3F1805F01D1022000E03C
:101C90000420042879D002F5C07303EB00131B68FD
:101CA00003F0010402F5C07303EB00131C600B7A10
:101CB0007BB94B7A0C8843EA445302F5C07404EBB9
:101CC00000142468234302F5C07404EB001423605D
:101CD00010E00B7A4C6843EAC4034C7A234302F5C4
:101CE000C07404EB00142468234302F5C07404EBB1
:101CF000001423608B7A03F00F038B7202F5C0731C
:101D000003EB00135B6823F00F0402F5C07303EBD1
:101D100000135C6002F5C07303EB00135B688C7A00
:101D2000234302F5C07404EB001463608B7B1C0634
:101D30004B7B44EA034403E000640040006600403B
:101D40000B7B44EA0323CC7A234302F5C07404EBF3
:101D50000014A3608B7C1C064B7C44EA03440B7C80
:101D600044EA0323CC7B234302F5C07404EB001444
:101D7000E36002F5C07303EB00131B6843F001043A
:101D800002F5C07303EB00131C6010BD10B50246D2
:101D9000002321B1012907D002290FD109E0906861
:101DA000F84C00EA04030BE09068F74C00EA0403E7
:101DB00006E09068F54C00EA040301E0002300BF50
:101DC00000BFF34C181BA34216D007DC83B16FF0A1
:101DD000806018180ED0022818D111E0B0F5007FED
:101DE00010D0EC4C001909D0B0F5003F0ED10BE03B
:101DF00002230DE000230BE0002309E0002307E0AD
:101E0000012305E0012303E0012301E0002300BFDB
:101E100000BFD8B210BD21B1012907D002290FD1CE
:101E200009E0826842F0800282600AE0826842F43F
:101E30000042826005E0826842F40002826000E0B5
:101E400000BF00BF704710B500F5D87303EB011356
:101E50001B6803F004031372137A53B900F5D873A7
:101E600003EB01131B6840F2FF7404EA5353136041
:101E700009E000F5D87303EB01131B686FF06044B1
:101E800004EAD303536000F5D87303EB01131B6816
:101E900003F00203537200F5D87303EB01135B6880
:101EA00003F00F03937200F5D87303EB01135B6823
:101EB0001B0AD37400F5D87303EB01139B68D3722C
:101EC00000F5D87303EB01139B681C0A147300F52B
:101ED000D87303EB01139B681C0C547300F5D87383
:101EE00003EB01139B681B0E937300F5D87303EB90
:101EF0000113DB68D37300F5D87303EB0113DB68C0
:101F00001C0A147400F5D87303EB0113DB681C0C76
:101F1000547400F5D87303EB0113DB681B0E937444
:101F200021B9C36843F02003C36003E0036943F0B1
:101F30002003036110BD21B9C26842F02002C260D3
:101F400003E0026942F0200202617047024600206D
:101F500019B9D36803F0030006E0012903D113691E
:101F600003F0030000E00020704710B502460B4666
:101F700000204FF6FF71BBB9146824F0020444F04E
:101F80000104146000E0491E546804F00304012CAD
:101F900001D00029F7D1546804F00304012C01D0CA
:101FA000002032E0012030E0012B13D1146824F02E
:101FB0000304146000E0491E546814F0030F01D0BC
:101FC0000029F8D1546814F0030F01D000201CE060
:101FD00001201AE0022B17D1146824F0010444F008
:101FE0000204146000E0491E546804F00304022C4B
:101FF00001D00029F7D1546804F00304022C01D069
:10200000002002E0012000E0002010BD0146002079
:102010000A6822F0010242F002020A604A6802F0F5
:102020000302022A00D10120704701464FF6FF72D9
:1020300000200B6823F002030B6000E0521E4B6887
:1020400003F00203022B01D1002AF7D14B6803F001
:102050000203022B00D001207047014600208A694C
:1020600002F070007047014600208A69100E704728
:10207000014600208A69C2F3074070471AB14369DC
:102080000B43436102E043698B434361704710B5E2
:102090000246002011F4700F08D09369C1F31304B5
:1020A000234201D001202DE000202BE011F0807FA1
:1020B00008D05368C1F31304234201D0012021E06A
:1020C00000201FE011F0006F08D09368C1F31304E3
:1020D000234201D0012015E0002013E011F0007F21
:1020E00008D0D368C1F31304234201D0012009E0D2
:1020F000002007E01369C1F31304234201D001203B
:1021000000E0002010BD0022234B994202D10023A1
:10211000836111E0C1F3130211F0007F01D0C260AE
:102120000AE011F0806F01D0026105E011F0006F4C
:1021300001D0826000E042607047024600200A42FF
:1021400001D0012000E00020704770B504460D4624
:1021500000266069284272D0B5F5807F69D01DDC09
:10216000082D42D006DC012D2DD0022D31D0042DBA
:102170007FD134E0102D3ED0202D42D0402D78D19B
:1021800045E0000003000004000300080000031005
:10219000000100080001FFF77000F030B5F5004FB6
:1021A00061D009DCB5F5007F4AD0B5F5806F4DD020
:1021B000B5F5006F5DD150E0B5F5803F2DD0B5F598
:1021C000003F56D12FE0A0685549FFF7B6FF0646FD
:1021D00051E0E0680321FFF7B0FF06464BE0E068FE
:1021E0000821FFF7AAFF064645E0E0681021FFF747
:1021F000A4FF06463FE020690321FFF79EFF064645
:1022000039E020690821FFF798FF064633E020698E
:102210001021FFF792FF06462DE060680821FFF7C6
:102220008CFF064627E060681021FFF786FF064610
:1022300021E0A0690121FFF780FF06461BE01BE0BB
:10224000A0690221FFF779FF064614E0A069042186
:10225000FFF773FF06460EE00BE0A0697021FFF761
:102260006CFF064607E060680421FFF766FF06463C
:1022700001E0002600BF00E00026304670BDB1F549
:10228000007F3AD00FDC202928D006DC01291CD0A1
:1022900004291DD0082940D11DE0402921D0B1F5E5
:1022A000807F3AD126E0B1F5004F31D006DCB1F5A0
:1022B000806F25D0B1F5006F2FD124E0B1F5803FBC
:1022C00012D0B1F5003F28D111E0154A826025E017
:1022D0000822C26022E01022C2601FE008220261D0
:1022E0001CE01022026119E00822426016E0102270
:1022F000426013E00422426010E0042242600DE0DC
:10230000042242600AE0002282610422426005E069
:10231000002282610422426000E000BF00BF7047DB
:102320000101010010B504468C48844208D1012106
:102330000846FFF718FA00210120FFF714FA5EE0C3
:102340008748844208D101210220FFF70CFA0021BE
:102350000220FFF708FA52E08248844208D10121A6
:102360000420FFF700FA00210420FFF7FCF946E003
:102370007D48844208D101210820FFF7F4F90021AB
:102380000820FFF7F0F93AE07848844208D10121AB
:102390001020FFF7E8F900211020FFF7E4F92EE004
:1023A0007348844208D101212020FFF7DCF9002185
:1023B0002020FFF7D8F922E06E48844208D101219D
:1023C0004020FFF7D0F900214020FFF7CCF916E0BC
:1023D0006948844208D101218020FFF7C4F9002117
:1023E0008020FFF7C0F90AE06448844207D1012148
:1023F0008015FFF7B8F90021A015FFF7B4F910BD5B
:10240000F0B50A4600210023002400BF3DE001256D
:1024100005FA01F3156805EA03049C4234D1056806
:102420004F000326BE40B543056015794E00B54008
:102430000668354305601579012D02D01579022D06
:1024400016D185684F000326BE40B5438560557997
:102450004E00B540866835438560456801268E404C
:10246000B5434560456896798E40B6B235434560C0
:10247000C5684F000326BE40B543C560D5794E0000
:10248000B540C6683543C560491C1029BFD3F0BDAF
:102490004FF6FF7101600021017141718171C171BD
:1024A000704708B54FF480320092009A0A430092B8
:1024B000009AC261C161009AC261C2690092C26998
:1024C000009208BD0246002013690B4201D0012092
:1024D00000E0002070470146086980B2704702465C
:1024E000002053690B4201D0012000E0002070471A
:1024F0000146486980B27047018370474183704745
:102500000AB1018300E0418370474161704742692D
:102510004A4042617047F0B5002300244D07ED0E9C
:1025200002FA05F3CE1000F1200555F826504E07AB
:10253000F70E0F26BE40B543CF1000F1200646F837
:102540002750CE1000F1200555F8265045EA030427
:10255000CE1000F1200545F82640F0BD00000240F5
:102560000004024000080240000C0240001002403B
:102570000014024000180240001C024000200240EB
:10258000016821F00101016000210160416081606A
:10259000C160016121214161DA49884204D13D21B4
:1025A000D84A103A91608CE0D6491831884205D15A
:1025B0004FF47461D34A103A916082E0D1493031CE
:1025C000884205D14FF47411CE4A103A916078E0F8
:1025D000CC494831884205D14FF07461C94A103A5C
:1025E00091606EE0C7496031884204D1C649C54A4E
:1025F000103AD16065E0C3497831884204D1C349BB
:10260000C04A103AD1605CE0BE499031884204D1A2
:10261000BF49BC4A103AD16053E0BA49A831884258
:1026200005D14FF03D51B74A103AD16049E0B94960
:10263000884204D13D21B74A083A116041E0B549CA
:102640001831884205D14FF47461B24A083A1160DA
:1026500037E0B0493031884205D14FF47411AD4AAA
:10266000083A11602DE0AB494831884205D14FF05E
:102670007461A84A083A116023E0A6496031884293
:1026800004D1A149A34A121F11601AE0A14978316F
:10269000884204D19D499F4A121F116011E09D4953
:1026A0009031884204D19A499A4A121F116008E079
:1026B0009849A831884204D14FF03D51954A121FE4
:1026C0001160704710B500220268934B1A40CC6825
:1026D0000B6823434C6923438C692343CC69234310
:1026E0000C6A23434C6A23438C6A23434C6B234379
:1026F0008C6B23431A430260426922F00702D1E93E
:102700000B3423431A4342610B6943604B68836077
:102710008B68C36010BD0021016041608160C160B1
:10272000016141618161C161016241628162C16295
:10273000016341638163704721B1026842F0010285
:10274000026003E0026822F001020260704721B1DA
:10275000026842F40042026003E0026822F4004290
:102760000260704721B1026842F02002026003E07B
:10277000026822F020020260704741607047014603
:10278000486880B2704722B1036843F400230360B5
:1027900003E0036823F4002303600161704721B163
:1027A000026842F48022026003E0026822F4802280
:1027B000026070470AB1016100E0C16070470146E4
:1027C00000200A6812F4002F01D0012000E0002050
:1027D0007047014600200A6812F0010F01D0012065
:1027E00000E000207047014600204A6902F03800EE
:1027F000704730B503460A4600200024454DAB42E1
:1028000002D24049103901E04249103912F0005F0C
:1028100001D04C6800E00C68404D2C40144201D0BF
:10282000012000E0002030BD02463A4B9A4202D21D
:102830003448103801E03748103811F0005F03D0F9
:10284000364B0B40C36002E0344B0B408360704753
:1028500010B511F0800F09D022B1436943F0800315
:10286000436103E0436923F08003436180290BD077
:102870002AB1036801F01E042343036004E00368E7
:1028800001F01E04A343036010BD70B50246002092
:10289000002400251F4EB24202D21A4B103B01E029
:1028A0001C4B103B1E4E314206D01E2606EAD12498
:1028B000166806EA040502E0566906F0800511F084
:1028C000005F01D05C6800E01C68144E34400C428C
:1028D00002D00DB1012000E0002070BD02460D4B7A
:1028E0009A4202D20748103801E00A48103811F025
:1028F000005F03D0094B0B40C36002E0074B0B4065
:1029000083607047106002403D000020400F0020AF
:1029100000003D20106402403F801CF07D0F7D0FC1
:102920003C0F3C0F10B50446F748844208D1012102
:102930001020FEF76FFF00211020FEF76BFF3EE036
:10294000F248844209D101214804FEF752FF0021D8
:102950004FF40030FEF74DFF31E0ED48844209D1DD
:1029600001218804FEF745FF00214FF48020FEF787
:1029700040FF24E0E748844209D10121C804FEF762
:1029800038FF00214FF40020FEF733FF17E0E24844
:10299000844209D101210805FEF72BFF00214FF4E5
:1029A0008010FEF726FF0AE0DC48844207D10121AF
:1029B0002020FEF72FFF00212020FEF72BFF10BD67
:1029C0002DE9FF4705460E460024A14600BFA0465C
:1029D000B08900B100BF2C8A24F44054F08804432D
:1029E0002C82AC8941F20C608443B0883189084361
:1029F000718908430443AC81AC8A24F44074B089E3
:102A00000443AC826846FEF7C4FDBF48854202D04D
:102A1000C248854202D1DDF80C9001E0DDF8089053
:102A2000A88910F4004F08D009EBC90000EB091089
:102A300031684900B0FBF1F707E009EBC90000EB92
:102A4000091031688900B0FBF1F76420B7FBF0F0A2
:102A500004012009642101FB1078A88910F4004FBB
:102A600008D0322000EBC800B0FBF1F000F0070006
:102A7000044308E0322000EB08106421B0FBF1F0C1
:102A800000F00F0004432C81BDE8FF874FF416517E
:102A9000016000218180C18001810C2141810021E0
:102AA0008181704710B502460020108A20F47060C2
:102AB0000B884C8823438C882343CC8823431843BA
:102AC000108210BD0021018041808180C18070474B
:102AD00021B1828942F40052828104E082894DF65C
:102AE000FF731A4082817047028B02F47F42028397
:102AF000028B0A430283704721B1828942F400426B
:102B0000828103E08289C2F30E028281704721B183
:102B1000828A42F40062828204E0828A4FF2FF736A
:102B20001A4082827047C1F30802828070470146D2
:102B30008888C0F308007047028A4FF6F0731A4085
:102B40000282028A0A430282704721B1828942F0DE
:102B50000202828104E082894FF6FD731A4082816D
:102B6000704782894FF2FF731A40828182890A433B
:102B700082817047028A4FF6DF731A400282028A0E
:102B80000A430282704721B1028A42F480420282E3
:102B900004E0028A4BF6FF731A4002827047818973
:102BA00041F001018181704721B1828A42F008021F
:102BB000828204E0828A4FF6F7731A40828270475D
:102BC000028BD2B20283028B42EA01220283704757
:102BD00021B1828A42F02002828204E0828A4FF68A
:102BE000DF731A408282704721B1828A42F010025C
:102BF000828204E0828A4FF6EF731A408282704725
:102C0000828A4FF6FB731A408282828A0A4382824A
:102C1000704721B1828A42F00202828204E0828AF5
:102C20004FF6FD731A40828270471AB1838A0B43B4
:102C3000838202E0838A8B4383827047F0B5034628
:102C40000024002600250020A1F510676A3F00D16E
:102C500000BF1846C1F3421401F01F06012707FA0E
:102C600006F5012C01D10C3004E0022C01D110300A
:102C700000E014301AB107682F43076002E00768CC
:102C8000AF430760F0BD02460020B1F5007F00D1E0
:102C900000BF13880B4201D0012000E000207047E4
:102CA00001F40072B2F5007F00D100BFCA43028078
:102CB000704770B502460024002300250020A1F5CE
:102CC00010666A3E00D100BFC1F3421501F01F0338
:102CD000012606FA03F3012D02D19689334006E05E
:102CE000022D02D1168A334001E0968A33400C123D
:102CF000012606FA04F41688344013B10CB1012001
:102D000000E0002070BD00000010014000440040C1
:102D100000480040004C00400050004000140140BA
:102D200010B500220023A1F510646A3C00D100BF59
:102D30000A1201249440A3B2DC43048010BD0000B9
:102D40000CB50020019000907548006840F4803078
:102D50007349086000BF7248006800F400300090BA
:102D60000198401C0190009818B90198B0F5706F57
:102D7000F1D16B48006810F4003F02D001200090B0
:102D800001E0002000900098012845D164484030BF
:102D9000006840F080506249403108606148006836
:102DA00040F480405F4908605D48083000685C4935
:102DB000083108600846006840F400400860084692
:102DC000006840F4A05008605748091F0860081FB9
:102DD000006840F08070091F086000BF504800681C
:102DE00010F0007FFAD040F20560504908604C486E
:102DF0000830006820F0030049490831086008469F
:102E0000006840F00200086000BF454808300068D4
:102E100000F00C000828F8D10CBD10B5444800683B
:102E200040F47000424908603D48006840F00100ED
:102E30003B49086000203A4908310860384800687A
:102E40003C490840364908603B48091D0860081F96
:102E5000006820F48020091F0860002030490C31F0
:102E60000860FFF76DFF4FF000603149803908605E
:102E700010BD70B500200022022300240221284D3D
:102E800008352D6805F00C0020B1042806D008286C
:102E900034D107E0294D2A4E356033E0294D284EC4
:102EA00035602FE01E4D2D1D2D68C5F380541C4D3F
:102EB0002D1D2D6805F03F0154B1224DB5FBF1F5F4
:102EC000174E361D3668C6F3881605FB06F209E074
:102ED0001A4DB5FBF1F5124E361D3668C6F388164D
:102EE00005FB06F20E4D2D1D2D68C5F301456D1C29
:102EF0006B00B2FBF3F5124E356003E00F4D104E40
:102F0000356000BF00BF064D08352D68C5F30315B9
:102F10000D4E705D0A4D2D68C540094E356070BD7F
:102F2000003802400070004019544007003C024045
:102F300088ED00E0FFFFF6FE103000240024F400CE
:102F40001000002040787D011400002006488047D2
:102F500006480047FEE7FEE7FEE7FEE7FEE7FEE77E
:102F6000FEE7FEE7FEE7FEE71B2E000889010008EA
:102F700010B501210807FEF73CFC00214FF08050FE
:102F8000FEF737FC10BD3449086270470146002047
:102F9000324A106820F0E0000843106070472E4964
:102FA000086170472E49086070472E4908607047D5
:102FB00030B92A49096821F48041284A116005E0A6
:102FC0002649096841F48041244A1160704722492A
:102FD0004862704710B502460020204B186820F068
:102FE000030010431860204B1B6843F004031E4C81
:102FF0002360012901D130BF00E020BF1A4B1B68BC
:1030000023F00403184C236010BD1448006840F0FE
:103010000400124908600846006840F00200086099
:103020001148006840F004000F49086000BF00BF6D
:1030300030BF704701460020084A52680A4201D05A
:10304000012000E0002070470449096841EA80013E
:10305000024A11607047000000000E4200700040FC
:10306000A0000E42A4000E4210ED00E008B50022C0
:10307000009200200021CA22F94B1A6053221A60E4
:10308000F74A183A126822F0A002F54B183B1A6072
:1030900000BFF34A183A126802F02001009A521C4D
:1030A0000092009AB2F5003F01D00029F1D0EC4A1D
:1030B000183A126812F0200F01D0012000E0002021
:1030C000FF22E74B1A6008BD08B5002200920020DD
:1030D0000021E34A183A126812F0400F1CD1421E38
:1030E000DF4B183B1A6000BFDD4A183A126802F045
:1030F0004001009A521C0092009AB2F5803F01D024
:103100000029F1D0D64A183A126812F0400F01D0C7
:10311000012002E0002000E0012008BD38B50020B9
:10312000009000240025CA20CD4908605320086083
:10313000FFF7CAFF00B952E00020C94924390860EE
:1031400042F20110091D0860081D006800F0070028
:10315000091D086000BFC2481838006800F0040468
:103160000098401C00900098B0F5803F01D0002CE2
:10317000F1D0BB481838006810F0040F01D10025C9
:103180002DE0B7481C3800680020B5491C3908609C
:103190004FF6FF70B24910390860B248091F086045
:1031A0000020AF490C390860091D0860091D08603E
:1031B000AB4908310860AA4918310860A849203194
:1031C0000860091D0860A64918390860A4491C3127
:1031D0000860FFF74BFF08B9002500E00125FF203C
:1031E0009F490860284638BD9D481838006820F07F
:1031F00080009B4918390860704730B504460025A7
:10320000CA209749086053200860FFF75DFF00B9A6
:103210001DE093481C38006820F0400090491C399C
:10322000086008460068216808438D491C39086019
:103230008B491439A068086008460068A18840EAF4
:103240000140874914390860FFF7CEFF0125FF20B0
:1032500083490860284630BD002101607F2141601C
:10326000FF218160704718B1FF217D4A116004E0A1
:10327000CA217B4A116053211160704730B5044662
:103280000025CA207649086053200860FFF71CFF1C
:1032900000B914E044B172481C38006840F01000D6
:1032A0006F491C39086007E06D481C38006820F041
:1032B00010006B491C390860FFF796FF0125FF20BD
:1032C00067490860284630BDCA21654A116053210C
:1032D000116040B162491C39096841F02001604A1F
:1032E0001C3A116007E05E491C39096801F0DF01F2
:1032F0005B4A1C3A1160FF21594A11607047014630
:10330000002204E0501CC2B2A1F10A00C1B20A2995
:10331000F8DA100741EA10607047014600BF08095B
:1033200000EB8000420001F00F001044C0B2704773
:103330002DE9F04105460C460026002755B94848BE
:103340001C38006810F0400F00D002E00020E07050
:1033500000BF0EE042481C38006810F0400F04D057
:103360002078FFF7DAFF064602E00020E07000BF99
:1033700000BF55B120780004617840EA0120A178AF
:103380000843E17840EA014611E02078FFF7B7FFF3
:103390004FEA00486078FFF7B2FF48EA0028A078BB
:1033A000FFF7ADFF48EA0008E07848EA0046CA2087
:1033B0002B49086053200860FFF786FE08B90027F4
:1033C00014E029483040264924390860FFF70CFFF3
:1033D00023481C38006810F0200F06D1FFF746FE86
:1033E00008B9002702E0012700E00127FF201C495F
:1033F00008603846BDE8F0810021C170017041705D
:103400008170704770B506460C4600251448243874
:103410000068154900EA0105C5F305402070C5F3B1
:103420000620607005F07F00A07005F48000000C9D
:10343000E0705EB92078FFF770FF20706078FFF7CA
:103440006CFF6070A078FFF768FFA07070BD00206F
:103450000349091D086802492039096870470000BE
:1034600024280040FF007F007F7F7F002DE9F0418E
:1034700005460C46002600274DB9607800F0100084
:10348000102804D1607820F010000A30607005B96F
:1034900008E06078FFF741FF0646A078FFF73DFFA0
:1034A000064600BF55B1E0780004617840EA01208B
:1034B000A1780843217840EA413611E0E078FFF72F
:1034C0001EFF4FEA00486078FFF719FF48EA00281E
:1034D000A078FFF714FF48EA0008207848EA403651
:1034E000CA20FE49086053200860FFF7EDFD08B9C7
:1034F000002714E0FA483040F84920390860FFF707
:1035000073FEF6481C38006810F0200F06D1FFF754
:10351000ADFD08B9002702E0012700E00127FF20E8
:10352000EE4908603846BDE8F081012101708170E4
:1035300041700021C170704770B506460C460025E9
:10354000E64820380068E64900EA0105280CE070EA
:10355000C5F30420607005F03F00A070C5F3423051
:1035600020705EB9E078FFF7D8FEE0706078FFF772
:10357000D4FE6070A078FFF7D0FEA07070BD2DE97A
:10358000F04105460E46144600276DB9D3481C3855
:10359000006810F0400F00D002E00020E07000BF93
:1035A000A06800B91AE019E0CC481C38006810F097
:1035B000400F04D02078FFF7B0FE074602E000205D
:1035C000E07000BFA06820B9207BFFF7A6FE074689
:1035D00004E0207BFFF7A1FE074600BF95B12078ED
:1035E0000004617840EA0120A1780843E17840EACC
:1035F0000140217B40EA0160A1680843616840EA1C
:1036000001071BE02078FFF77AFE4FEA0048607858
:10361000FFF775FE48EA0028A078FFF770FE48EA39
:103620000008E07848EA0048207BFFF768FE48EA97
:103630000060A1680843616840EA0107CA20A74901
:10364000086053200860B6F5807F03D1A34808388E
:10365000076002E0A148001F0760FF209F49086043
:10366000BDE8F0810021C1700170417081708160FE
:10367000012101730021416070472DE9F0410646A8
:103680000F4614460025B7F5807F03D193480838CC
:10369000056802E09148001F0568C5F305402070E9
:1036A000C5F30620607005F07F00A07005F480006F
:1036B000000CE070C5F30560207305F08040A06049
:1036C00005F0803060607EB92078FFF726FE20701C
:1036D0006078FFF722FE6070A078FFF71EFEA070F2
:1036E000207BFFF71AFE2073BDE8F08138B5024653
:1036F0000024009400230020CA24784D2C60532419
:103700002C6041B1754C1C3C24681443734D1C3D26
:103710002C6001201EE0714C1C3C246894436F4DCA
:103720001C3D2C6000BF6D4C183C246804EA122339
:10373000009C641C0094009CB4F5803F01D0002BD9
:10374000F1D0664C183C246814EA122F01D10020F5
:1037500000E00120FF24614D2C6038BD30B500230E
:10376000CA245E4D2C6053242C6041EA0203B0F55C
:10377000807F03D1594C2034236002E0574C24341D
:103780002360FF24554D2C6030BD01460020B1F56B
:10379000807F05D1514A20321268C2F30E0004E046
:1037A0004E4A24321268C2F30E007047CA214B4AB7
:1037B00011605321116049491C39096821F0070142
:1037C000464A1C3A11601146096801431160FF2105
:1037D000424A11607047CA21404A1160532111606A
:1037E0003E4910390860FF21116070473B4810388E
:1037F000006880B2704718B501460023009300228C
:103800000020CA23354C23605323236049B1334B36
:103810001C3B1B6843F48063304C1C3C236001203C
:103820001FE02E4B1C3B1B6823F480632B4C1C3C7D
:10383000236000BF294B183B1B6803F00402009B68
:103840005B1C0093009BB3F5803F01D0002AF1D0B0
:10385000224B183B1B6813F0040F01D1002000E03D
:103860000120FF231D4C236018BDCA221B4B1A6088
:1038700053221A60194A1C3A126822F48022174B0C
:103880001C3B1A601A46126840EA01031A43134BA4
:103890001C3B1A60FF22114B1A6070470F481C38FE
:1038A000006800F480207047CA220C4B1A60532233
:1038B0001A600A4A1C3A126822F4E002074B1C3BC9
:1038C0001A601A46126840EA01031A43034B1C3B74
:1038D0001A60FF22014B1A60704700002428004044
:1038E0003FFFFF0070B504460D460026CA20F6498A
:1038F000086053200860FFF7E7FB00B907E044EADF
:103900000500F1490C390860FFF76EFC0126FF2025
:10391000ED490860304670BD30B504460025CA2028
:10392000E949086053200860FFF7CEFB00B914E0B6
:1039300044B1E5481C38006840F08000E2491C3979
:10394000086007E0E0481C38006820F08000DE498D
:103950001C390860FFF748FC0125FF20DA490860A0
:10396000284630BDCA21D84A11605321116040B1A8
:10397000D5491C39096841F40001D34A1C3A116049
:1039800007E0D1491C39096821F40001CE4A1C3AEC
:103990001160FF21CC4A11607047CA21CA4A1160E8
:1039A00053211160C8491C39096821F40021C64A15
:1039B0001C3A11601146096801431160FF21C24A97
:1039C0001160704770B5034600200024CA25BE4E22
:1039D000356053253560BC4D183D2D6815F4803F8A
:1039E0000AD000E0641CB84D183D2D6815F4803FE6
:1039F00002D0B4F5003FF5D1B34D183D2D6815F454
:103A0000803F07D143EA01051543AF4E18363560B4
:103A1000012000E00020FF25AB4E356070BD10B5E1
:103A20000A460021A84B1C3B1B6840F6080423EA09
:103A300004011AB140F40063194300E00143CA23B2
:103A4000A14C2360532323609F4B1C3B1960FF2331
:103A5000236010BD2DE9F04180460C461546002636
:103A6000002799480C300068984900EA01069648FA
:103A700010300068964900EA0107C6F3054020703F
:103A8000C6F30620607006F07F00A07006F4800088
:103A9000000CE0700020E870C7F30420687007F0A5
:103AA0003F00A870C7F342302870B8F1000F17D15B
:103AB0002078FFF732FC20706078FFF72EFC6070F2
:103AC000A078FFF72AFCA0706878FFF726FC6870E2
:103AD000A878FFF722FCA8702878FFF71EFC287052
:103AE000BDE8F081784814300068704741B9764AE3
:103AF0001C32126822EA4002734B1C331A6007E042
:103B0000714A1C32126842EA40026F4B1C331A6041
:103B1000704739B16C4A1C32126802436A4B1C333D
:103B20001A6006E0684A1C3212688243664B1C33F6
:103B30001A60704764491C31096821F4C051624A17
:103B40001C321160114609680143116070475E49DB
:103B50001C31096821F4E0615B4A1C321160114696
:103B6000096801431160704757491C31096821F405
:103B7000C041554A1C321160114609680143116069
:103B8000704740B150491C31096841F080014E4AEC
:103B90001C32116007E04C491C31096821F080019A
:103BA000494A1C321160704740B147491C310968CD
:103BB00021F40041444A1C32116007E042491C31A3
:103BC000096841F40041404A1C321160704708B551
:103BD000002200923C4A2C320092009A02EB8002B2
:103BE0000092009A116008BD08B5014600200090BF
:103BF00035482C300090009800EB81000090009830
:103C0000006808BD30491C31096821F480312E4A12
:103C10001C321160114609680143116070472A493E
:103C20001C31096821F40031274A1C321160114609
:103C3000096801431160704723491C31096821F468
:103C40008021214A1C32116011460968014311602C
:103C50007047F0B504460D4600270026CA201A49D1
:103C600008605320086018481838006810F0080FE2
:103C70000AD000E0761C14481838006810F0080FCD
:103C800002D0B6F5805FF5D10F481838006810F003
:103C9000080F13D10C481C38006810F0100F0BD11E
:103CA00045EA0400084908310860FFF7DFF908B960
:103CB000002704E0012702E0002700E00027FF20A2
:103CC000014908603846F0BD242800407F7F7F000E
:103CD0003FFFFF00CA223D4B1A6053221A6091B188
:103CE0003A4A1C3A126820F004031A43374B1C3B33
:103CF0001A60364A1C32126800F004031A43334B30
:103D00001C331A6011E0314A1C3A126820F0040397
:103D10009A432E4B1C3B1A602C4A1C32126800F04E
:103D200004039A43294B1C331A60FF22274B1A6065
:103D3000704710B5014600200022244B183B1B6839
:103D4000234C03EA04020A4201D0012000E00020D3
:103D500010BD81B241F080011C4A183A126802F08D
:103D6000800262EA0101194A183A1160704730B5C1
:103D70000146002000220023144C1C34246804F067
:103D80000402124C1C3C24680C4002EAD13544EA7F
:103D900005030E4C183C246804EA111223B11404E4
:103DA000240C01D0012000E0002030BD00210109D9
:103DB0008AB242F08002054B183B1B6803F0800377
:103DC00063EA0202014B183B1A6070472428004046
:103DD0007F3F01001CB501210520FDF76FFC062087
:103DE000009001208DF8040000208DF806000320CB
:103DF0008DF8050001208DF8070069460D48FEF793
:103E0000FFFA06210B48FEF777FB4FF400600090A5
:103E100001208DF8040000208DF8060003208DF8A5
:103E2000050001208DF8070069460348FEF7E8FA0F
:103E30001CBD0000000802400000024000B597B021
:103E40000121F948FDF73AFC01218804FDF769FCDE
:103E500002208DF8480000208DF84A0001208DF8DE
:103E60004B0003208DF849004FF48060119011A998
:103E7000EE48FEF7C5FA4FF40060119011A9EB4827
:103E8000FEF7BEFA07220A21E848FEF744FB0722A4
:103E90000B21E648FEF73FFB4FF4E1301390002082
:103EA000ADF85000ADF85200ADF854000C20ADF85C
:103EB00056000020ADF8580013A9DD48FEF780FD3C
:103EC00001224021DA48FEF7B0FE01228021D848C5
:103ED000FEF7ABFE0121D648FEF7FAFDD548FEF706
:103EE0004FFB4FF000600190D148001D0290D24876
:103EF00003900020049014200590002006904FF4B9
:103F0000806007900020089009904FF480700A901C
:103F10004FF440300B9000200C900D900E900F90BD
:103F200001A9C448FEF7CEFBC2483030FEF728FB9B
:103F30004FF000600190BE48001D0290BF48039002
:103F40004020049064200590002006904FF480608B
:103F500007900020089009900A904FF400300B90D1
:103F600000200C9001200D9000200E900F9001A9D0
:103F7000B0483030FEF7A6FB27208DF84000002027
:103F80008DF841008DF8420001208DF8430010A803
:103F9000FCF74FFB0E208DF8400002208DF8410009
:103FA00000208DF8420001208DF8430010A8FCF796
:103FB00040FB012240F224419D48FEF73FFE0122D2
:103FC00010219C483030FEF743FC01219948FEF750
:103FD000B3FB012197483030FEF7AEFB01224021B0
:103FE0009348FEF722FE012280219148FEF71DFE34
:103FF00001218F48FEF76CFD17B000BD10B54FF0E2
:10400000C0518C483030FEF70FFC00218948303019
:10401000FEF792FB00208A49087010BD70B5044677
:104020000D4600BF864800780028FBD10120844956
:1040300008702A462146814804F07AF829467D48CE
:104040003030FEF79AFB01217A483030FEF774FBDE
:1040500070BD70B588B0054600240026AA208DF8F2
:1040600000008DF80100F1208DF8020010208DF87D
:10407000030000BF23E005EB8400C178002000EBC3
:104080008400001D0DF8001005EB840081780120EC
:1040900000EB8400001D0DF8001005EB8400417852
:1040A000022000EB8400001D0DF8001015F824100C
:1040B000032000EB8400001D0DF80010641C042C8C
:1040C000D9DB002404E01DF804003044C6B2641CAF
:1040D000142CF8DB8DF8146015216846FFF79EFF5D
:1040E00008B070BD70B588B005460026AA208DF8CE
:1040F00000008DF80100EF208DF8020002208DF8FD
:10410000030010208DF80400E8B28DF805000024AB
:1041100005E01DF80400304486B2601C84B2062C11
:10412000F7DBF0B28DF8060007216846FFF776FF4F
:1041300008B070BD10B5002440F224413C48FEF7A1
:10414000B8FD00286FD03A4800883948001D008823
:104150003848FEF734FB002865D100213548FEF7CA
:10416000EBFA3448FEF70BFBC0F114003549086048
:10417000142030492839C86201212E48FEF7DCFAA4
:1041800000BFDCE02C48005DAA2867D12A49601CEA
:10419000085CAB28F9D1A01D085CAC28F5D12A48F1
:1041A00090ED000AF7EE000A30EE200A80ED000ADA
:1041B0000846C0786438254948641F484079643807
:1041C000234948640846406C5A280ADB0846406C7C
:1041D000642806DC1F4890ED000A084680ED100AAE
:1041E0006EE01B48406C10F1640F0DDB1848406C0A
:1041F00010F15A0F08DC174890ED000AB1EE400AA2
:10420000134880ED100A5BE01148406C0A2826DC58
:104210000F48406C10F10A0F21DB9FED0F0A0C488C
:1042200080ED100A4CE08DE0020020000004024006
:104230000048004028600240F80200204A030020A5
:10424000480000204C00002028000020E804002046
:104250003805002030000020000000006DE07848A4
:10426000406C5A2813DA7648406C0A280FDD7448EF
:1042700090ED110AF8EEC00A724890ED000A9FED29
:10428000721A01EE200A6E4880ED100A18E06C48A0
:10429000406C10F10A0F13DA6948406C10F15A0FA4
:1042A0000EDD674890ED110AF8EEC00A654890ED02
:1042B000000A9FED651A11EE200A614880ED100A90
:1042C0006248406C64280CDA6048406C0A2808DDBB
:1042D0009FED5F0A5D4880ED100A00205D4908608F
:1042E0002BE05A48406C10F1640F0DDB5748406CCE
:1042F00010F10A0F08DA9FED580A544880ED100AB1
:1043000000205449086018E05048406C0A280DDC31
:104310004E48406C10F10A0F08DB1FED310A4B4884
:1043200080ED100A00204B49086006E04748406CC9
:10433000962802D1012047490860601CC4B20E2CA7
:10434000FFF620AF10BD10B54448007830B14348A7
:104350000078FFF7C7FE00204049087010BD3848BC
:1043600090ED100A3E48D0ED000A80EE201A344845
:1043700090ED0E0A31EE000A80ED090A334890ED07
:10438000100A384890ED001AC0EE010A2F4890ED4F
:104390000E0A30EE800A80ED090A90ED090AF2EE6D
:1043A000080AB4EEE00AF1EE10FA04DDB2EE080AF3
:1043B00080ED090A0DE0254890ED090AFAEE040A9D
:1043C000B4EEE00AF1EE10FA03D2BAEE040A80ED80
:1043D000090A1B4890ED090ADFED230AB4EEE00A52
:1043E000F1EE10FA04DD9FED200A80ED090A0DE0E0
:1043F000134890ED090ADFED1D0AB4EEE00AF1EE74
:1044000010FA03D29FED190A80ED090A0F4890EDCA
:10441000090A80ED0E0A0A4890ED090A80ED0E0A9D
:10442000704710B50B480068012802D101F0D2FD99
:1044300004E00848006808B9FFF791FF10BD0000CC
:10444000380500203800002068916D3BE80400200A
:104450000AD7A33C440000200AD7A3BC24000020B4
:10446000400000203C00002000004842000048C2FC
:1044700010B504466FF00400FCF729F9E11704EBCE
:104480005171C1F3C701384A11701046007800EB32
:104490004001C1EBC0104FF6FF7101EAC000334983
:1044A000088010BD0146304A12784A434FF0E0239D
:1044B0005A6100229A611A46126942F001021A6199
:1044C00000BF4FF0E022106910F0010F02D010F48D
:1044D000803FF6D04FF0E022126922F001024FF047
:1044E000E0231A6100229A61704701461F4A128830
:1044F0004A434FF0E0235A6100229A611A4612693A
:1045000042F001021A6100BF4FF0E022106910F082
:10451000010F02D010F4803FF6D04FF0E022126974
:1045200022F001024FF0E0231A6100229A617047E5
:1045300070B504464FF4077094FBF0F0C6B24FF428
:10454000077094FBF0F100FB114085B205E04FF4D9
:104550000770FFF7CAFF701EC6B2002EF7D115B163
:104560002846FFF7C2FF70BD6000002062000020F7
:104570000EB501210420FDF7D4F84FF0FF30019073
:104580005320ADF800000020ADF80800ADF802009F
:1045900001218D48FCF7D2F969468B48FCF763F995
:1045A00001218948FCF7E8F90EBD1FB50121402023
:1045B000FDF7B7F80920029042F2CF00ADF80400F1
:1045C0000020ADF80600ADF80C0001A97F48FCF70B
:1045D0004AF9012211467D48FCF7E6FD01217B489E
:1045E000FCF7CAF94FF4E060FCF71EF82B208DF8B9
:1045F000000000208DF8010002208DF8020001204B
:104600008DF803006846FCF714F81FBD00B9704729
:104610006F4991ED070AF2EE080AB4EEE00AF1EEF6
:1046200010FA0ADB91ED0E0A6A49D1ED000A30EE6C
:10463000600A674981ED0E0A13E0654991ED070AAA
:10464000FAEE080AB4EEE00AF1EE10FA09D891ED9C
:104650000E0A6049D1ED000A30EE200A5C4981ED76
:104660000E0A00BFD3E710B504465B480068B0F5FA
:10467000FA6F05DA58480068401C5749086002E0A4
:10468000022056490870002C45D0012C02D0022C83
:1046900048D115E09FED520A524880ED0E0A9FED79
:1046A000500A4B4880ED0E0A9FED4D0A4D4880EDB3
:1046B000080A012001F0C7F9002002F0ADF832E04D
:1046C0000020FFF7A3FF4848B0F87400012802D18A
:1046D00003F08CFB1EE0FFF7A4FE3D4890ED081AA6
:1046E000F0EE410A90ED0E1AB0EE410A3F4901206A
:1046F00001F042F83B4890ED071AF0EE410A90EDC8
:104700000E1AB0EE410A3A49012001F01EF90120CB
:1047100001F07BFB07E0002001F077FB002002F0B6
:104720007BF800E000BF00BF10BD3248007A0228CD
:1047300003D101203049087002E000202E490870A2
:1047400070471FB52D4B0FCB8DE80F0001211F487F
:10475000FCF741FD012832D101211C48FCF74CFD3A
:1047600001211A48FCF734FD25480068401C244903
:1047700008602448808B401C224988832248806935
:10478000401C2149886121488069401C1F4988617B
:1047900000F0F4FEFFF7C9FF10480078FFF763FF51
:1047A00017480068B0F57A7F09DB002014490860DB
:1047B000174800686FEA00001649C1F884021FBD5F
:1047C000014824300068704700080040001800408D
:1047D000E804002078000020740000207000002011
:1047E0000000000038050020249E000888050020F5
:1047F00004010020B205002028010020EC9D0008E3
:104800006400002064070020C8050020E4050020A3
:10481000840241420000414210B500BF01226B21D9
:10482000D02000F07CFAC4B24FF4FA70FFF780FE9B
:1048300000226B21D02000F072FAC4B23220FFF7C0
:1048400077FE7521D02000F0AAFA8B49087008463F
:1048500000786828E2D100226B21D02000F05FFAB6
:10486000C4B23220FFF764FE00221921D02000F0EC
:1048700056FA2044C4B23220FFF75AFE03221A210E
:10488000D02000F04CFA2044C4B23220FFF750FE92
:1048900010221B21D02000F042FA2044C4B2322062
:1048A000FFF746FE09221C21D02000F038FA2044F0
:1048B000C4B23220FFF73CFE204610BD10B53B21AC
:1048C000D02000F06CFA6D4908703C21D02000F037
:1048D00066FA6A4948703D21D02000F060FA6749C5
:1048E00088703E21D02000F05AFA6449C8703F21F8
:1048F000D02000F054FA614908714021D02000F026
:104900004EFA5E4948714321D02000F048FA5B49D5
:1049100008724421D02000F042FA584948724521DB
:10492000D02000F03CFA554988724621D02000F092
:1049300036FA5249C8724721D02000F030FA4F4968
:1049400008734821D02000F02AFA4C49487310BD62
:1049500010B52DED048B4FF47A7408EE104A9FEDDC
:10496000480AF0EE408A9FED460AB0EE409A0021D8
:10497000444841858185C1854348C1853CE0FFF7B6
:104980009DFF3E48407A3D49097A40EA012000B245
:104990003C4988843948C07A3849897A40EA0120FC
:1049A00001B23848C1843548407B3449097B40EA2C
:1049B000012001B233480185B0F9240000EE100A4D
:1049C000B8EEC00A30EE280AF0EE408A2D48B0F961
:1049D000260000EE100AB8EEC00A30EE090AB0EE6A
:1049E000409A2848B0F9280000EE100AB8EEC00A34
:1049F00030EE290AF0EE409A2000A4F10104BED165
:104A0000B8EEC80AC8EE800ABDEEE00A10EE100A41
:104A100001B21C48C186B8EEC80AC9EE000ABDEE54
:104A2000E00A10EE100A01B216480187B8EEC80A73
:104A3000C9EE800ABDEEE00A10EE100A01B211487C
:104A4000418702F0CBFB0F4AB2F936100F4A1068CB
:104A500002F0CEFB0B4AB2F938100C4A506802F053
:104A6000C7FB084AB2F93A10084A906802F0C0FB46
:104A7000BDEC048B10BD00007C0000206004002011
:104A800000000000D003002018040020DC010020FA
:104A90001CB501210220FCF711FE4FF4807000903C
:104AA00001208DF804008DF8050000208DF8060027
:104AB00001208DF807006946CD48FDF7A1FC4FF4B1
:104AC0000070009001208DF804008DF805008DF82D
:104AD000060000208DF807006946C548FDF790FCE8
:104AE0001CBD062000BF0100A0F10100FBD17047F2
:104AF00041F6583000E0401E0028FCD1704710B548
:104B00004FF40071BA48FDF7F7FC4FF48071B848D4
:104B1000FDF7F2FCFFF7E5FF4FF40071B448FDF735
:104B2000D1FC08B9002010BD4FF40071B048FDF76A
:104B3000E5FCFFF7D6FF4FF40071AD48FDF7C2FC6E
:104B400008B10020EFE74FF40071A948FDF7D6FC4B
:104B5000FFF7C7FF0120E6E710B54FF48071A448C6
:104B6000FDF7CCFCFFF7BDFF4FF40071A048FDF747
:104B7000C5FCFFF7B6FF4FF480719D48FDF7BCFC04
:104B8000FFF7AFFF4FF400719948FDF7B5FCFFF751
:104B9000A8FF10BD10B54FF480719548FDF7AEFC2D
:104BA000FFF79FFF4FF400719148FDF7A7FCFFF757
:104BB00098FF4FF480718E48FDF79EFCFFF791FF40
:104BC0004FF480718A48FDF799FCFFF78AFF10BD0A
:104BD00010B54FF480718648FDF790FCFFF781FF18
:104BE0004FF400718248FDF787FCFFF77AFF4FF41E
:104BF00080717F48FDF780FCFFF773FF4FF48071F1
:104C00007B48FDF77BFCFFF76CFF10BD10B54FF440
:104C100080717748FDF772FCFFF763FF4FF4007176
:104C20007348FDF769FCFFF75CFF4FF48071704833
:104C3000FDF762FCFFF755FF4FF400716C48FDF77C
:104C400041FC40B14FF480716948FDF757FCFFF714
:104C500048FF002010BD4FF480716548FDF74EFC01
:104C6000FFF73FFF0120F5E770B5044608251FE078
:104C70004FF480715E48FDF741FCFFF732FF14F0FE
:104C8000800F05D04FF400715948FDF735FC04E062
:104C90004FF400715648FDF731FC6006040EFFF733
:104CA00020FF4FF480715248FDF726FCFFF719FFF3
:104CB0002800A5F10101CDB2DAD14FF480714C4842
:104CC000FDF71CFC70BD70B508250024A9014848FB
:104CD000FDF712FC17E06006040E4FF480714448A3
:104CE000FDF70CFCFFF7FDFE4FF480714048FDF727
:104CF00003FCFFF7F6FE4FF400713D48FDF7E2FBC1
:104D000008B144F001042800A5F10101CDB2E2D1BF
:104D10004FF480713648FDF7F1FB204670BD70B549
:104D200006460C461546FFF7EAFE08B9002070BD9E
:104D30003046FFF799FFFFF769FF18B9FFF70CFF3F
:104D40000020F4E72046FFF78FFFFFF75FFF2846BC
:104D5000FFF78AFFFFF75AFFFFF7FEFEFFF7C8FED7
:104D60000120E4E770B505460C46FFF7C8FE08B918
:104D7000002070BD2846FFF777FFFFF747FF18B9FF
:104D8000FFF7EAFE0020F4E72046FFF76DFFFFF78C
:104D90003DFFFFF7E1FEFFF7ABFE0120E9E770B54D
:104DA00004460D46FFF7ABFE08B9002070BD204653
:104DB000FFF75AFFFFF72AFF18B9FFF7CDFE0020D3
:104DC000F4E72846FFF750FFFFF720FFFFF797FEB5
:104DD000611CC8B2FFF748FFFFF718FFFFF773FF2A
:104DE0000646FFF7F5FEFFF7B7FE3046DEE70000A8
:104DF00000040240FE48B0F8720008BBFD4890ED88
:104E00000F0ADFEDFD0A80EE201AFC4880ED0C1A37
:104E1000FB4890ED010AF94880ED080AB0F9181036
:104E2000F348B0F86600081A00EE100AB8EEC00A9F
:104E3000DFEDF40A20EE200AF04880ED070A25E0B5
:104E4000EB48B0F87200012820D1EA4890ED0F0A33
:104E5000DFEDE90A80EE201AE84880ED0C1AE848F8
:104E600090ED010AE54880ED080AB0F91810E04815
:104E7000B0F86600081A00EE100AB8EEC00ADFEDBE
:104E8000E10A20EE200ADD4880ED070AD94890EDBE
:104E9000110ADFEDD90A80EE201ADB4880ED0C1AEA
:104EA00090ED0C0AB5EEC00AF1EE10FA02DD90EDBD
:104EB0000C0A04E0D44890ED0C0AB1EE400AF3EE7F
:104EC0000E0AB4EEE00AF1EE10FA04D29FEDCF0A1A
:104ED000CD4880ED0C0ACC4890ED080AD0ED0C0AC4
:104EE0009FEDCB1A00EE810A80ED080AB0F9180098
:104EF00040F6B831884207DAC348008B00F500500D
:104F000000B2C149488303E0BF48008BBE494883D3
:104F1000BD48B0F91A10B648B0F86400081A00EE9F
:104F2000100AB8EEC00ADFEDB70A20EE200AB64834
:104F300080ED070A90ED070AB64880ED020A704737
:104F400000B52DED108B89B0B0EE40BAF0EE60BA2E
:104F5000B0EE418AF0EE618AB0EE429AF0EE629ACB
:104F60008DED069B8DED048BAB4890ED000BB0EE04
:104F700040CAF0EE60CA90ED000BB0EE40CAF0EE11
:104F800060CA9DED048B53EC182BA44890ED000BE8
:104F900051EC100B03F0DEF841EC100BB0EE40AA20
:104FA000F0EE60AA9DED069B53EC192B51EC1A0B09
:104FB00003F0D0F841EC100BB0EE40FAF0EE60FADE
:104FC00053EC1F2B51EC1A0B03F0DDF941EC100BE5
:104FD000B0EE40EAF0EE60EA53EC1C2B51EC1B0BF8
:104FE00003F059F941EC100BB0EE40FAF0EE60FA24
:104FF00053EC1E2B51EC1F0B03F053F941EC100B3B
:105000008DED000B53EC1C2B9DED000B51EC100BA8
:1050100003F0A0F841EC100BB0EE40DAF0EE60DAED
:1050200053EC1E2B9FED7E0B51EC100B03F033F96C
:1050300041EC100BB0EE40FAF0EE60FA53EC1A2B94
:1050400051EC1F0B03F02DF941EC100B8DED020B11
:105050009DED020B714880ED000B6F4880ED00DB89
:10506000B0EE4D0AF0EE6D0A09B0BDEC108B00BD3C
:1050700000B52DED108B89B0B0EE40BAF0EE60BAFD
:10508000B0EE418AF0EE618AB0EE429AF0EE629A9A
:105090008DED069B8DED048B634890ED000BB0EE1B
:1050A00040CAF0EE60CA90ED000BB0EE40CAF0EEE0
:1050B00060CA9DED048B53EC182B5C4890ED000BFF
:1050C00051EC100B03F046F841EC100BB0EE40AA87
:1050D000F0EE60AA9DED069B53EC192B51EC1A0BD8
:1050E00003F038F841EC100BB0EE40FAF0EE60FA45
:1050F00053EC1F2B51EC1A0B03F045F941EC100B4C
:10510000B0EE40EAF0EE60EA53EC1C2B51EC1B0BC6
:1051100003F0C1F841EC100BB0EE40FAF0EE60FA8B
:1051200053EC1E2B51EC1F0B03F0BBF841EC100BA2
:105130008DED000B53EC1C2B9DED000B51EC100B77
:1051400003F008F841EC100BB0EE40DAF0EE60DA54
:1051500053EC1E2B9FED320B51EC100B03F09BF820
:1051600041EC100BB0EE40FAF0EE60FA53EC1A2B63
:1051700051EC1F0B03F095F841EC100B8DED020B79
:105180009DED020B294880ED000B274880ED00DBE8
:10519000B0EE4D0AF0EE6D0A09B0BDEC108B00BD0B
:1051A00000B52DED108B89B0B0EE40BAF0EE60BACC
:1051B000B0EE418AF0EE618AB0EE429AF0EE629A69
:1051C0008DED069B8DED048B194890ED000BB0EE34
:1051D00040CAF0EE60CA90ED000BB0EE40CAF0EEAF
:1051E00060CA9DED048B53EC182B124824E000009C
:1051F000249E0008D0030020E4A40B3AE804002019
:10520000A8070020293F293D3805002000000000A4
:10521000D53C093800060020A8000020B00000207E
:10522000000000000000F03F98000020A0000020D7
:10523000880000209000002090ED000B51EC100B36
:1052400002F088FF41EC100BB0EE40AAF0EE60AA2D
:105250009DED069B53EC192B51EC1A0B02F07AFFD3
:1052600041EC100BB0EE40FAF0EE60FA53EC1F2B5D
:1052700051EC1A0B03F087F841EC100BB0EE40EA4A
:10528000F0EE60EA53EC1C2B51EC1B0B03F003F81F
:1052900041EC100BB0EE40FAF0EE60FA53EC1E2B2E
:1052A00051EC1F0B02F0FDFF41EC100B8DED000BDC
:1052B00053EC1C2B9DED000B51EC100B02F04AFF40
:1052C00041EC100BB0EE40DAF0EE60DA53EC1E2B3E
:1052D0001FED2D0B51EC100B02F0DDFF41EC100B1C
:1052E000B0EE40FAF0EE60FA53EC1A2B51EC1F0BC3
:1052F00002F0D7FF41EC100B8DED020B9DED020B80
:10530000944880ED000B944880ED00DBB0EE4D0A30
:10531000F0EE6D0A09B0BDEC108B00BD70B52DED3F
:10532000088B0546002415B9BDEC088B70BDFFF74E
:10533000C5FA8A4840788949097840EA012000B2D4
:10534000874908808548C0788449897840EA0120E7
:1053500000B283494880814840798049097940EA10
:10536000012000B27E4988807C48407A7B49097AD6
:1053700040EA01217A48C08E081A00B27849888430
:105380007648C07A7549897A40EA01217448008FCD
:10539000081A01B27248C1847048407B6F49097B8A
:1053A00040EA01216E48408F081A01B26C4801851D
:1053B000B0F9240000EE100AB8EEC00A69486A4944
:1053C000097800EB810080ED000A6548B0F92600FD
:1053D00000EE100AB8EEC00A624828306249097827
:1053E00000EB810080ED000A5D48B0F9280000EE76
:1053F000100AB8EEC00A5B4850305B49097800EBF0
:10540000810080ED000A1FED7F8A5FED808A1FED2D
:10541000819A00241DE0534800EB840090ED000ABF
:1054200030EE080AB0EE408A4E48283000EB840087
:1054300090ED000A30EE280AF0EE408A49485030DC
:1054400000EB840090ED000A30EE090AB0EE409ABD
:10545000641C0A2CDFDB44480078401C0A2190FBC6
:10546000F1F201FB120040490870F2EE040A88EEE6
:10547000200A5FED9F0A20EE200A394880ED0F0ACE
:10548000B2EE040AC8EE800A1FEDA50A20EE800ADB
:1054900080ED100AF2EE040A89EE200A5FEDAA0AF6
:1054A00020EE200A80ED110A0146B1F9000002F059
:1054B000D9FF41EC100BB0EE40BAF0EE60BA9FEDB0
:1054C0002B2B9FED2C1BFFF76BFEB0EE40AAF0EEEE
:1054D00060AA51EC1A0B02F0D6FF00B22049C88036
:1054E000B1F9020002F0BEFF41EC100BB0EE40BA81
:1054F000F0EE60BA9FED1D2B9FED1E1BFFF7B8FD70
:10550000B0EE40AAF0EE60AA51EC1A0B02F0BBFF1D
:1055100001B2134801810146B1F9040002F0A2FF73
:1055200041EC100BB0EE40BAF0EE60BA9FED0F2BDD
:105530009FED101BFFF704FDB0EE40AAF0EE60AA4D
:1055400051EC1A0B02F09FFF01B20548418100BFE8
:10555000EAE600009000002088000020600400209F
:10556000D003002070040020810000200000000013
:10557000000018407B14AE47E17A943FFE48B0F833
:105580007200F8B9FD480088FD490880FB4890ED9D
:10559000010A084680ED010AF84890ED020A084623
:1055A00080ED020AF54880898881F44890ED040A6C
:1055B000084680ED040AF14890ED050A084680EDA2
:1055C000050A23E0EC48B0F8720001281ED1ED482E
:1055D0000088EB490880EB4890ED010A084680ED11
:1055E000010AE84890ED020A084680ED020AE54803
:1055F00080898881E34890ED040A084680ED040A1A
:10560000E04890ED050A084680ED050A7047DE493E
:10561000D1ED080AB1EE601AD1ED080AF5EEC00A24
:10562000F1EE10FA02DDD1ED080A04E0D649D1ED21
:10563000080AF1EE600AC1EE201AFDEEE10A10EE52
:10564000900AD149D1ED080AF5EEC00AF1EE10FA40
:1056500002DDD1ED080A04E0CB49D1ED080AF1EEF4
:10566000600AB0EE001AF4EEC10AF1EE10FA02D2AE
:105670009FEDC60A7FE0C449D1ED080AF5EEC00AE5
:10568000F1EE10FA02DDD1ED080A04E0BE49D1EDD9
:10569000080AF1EE600AB1EE001AF4EEC10AF1EE6A
:1056A00010FA06D25621414300EE901AB8EEE00AF5
:1056B00061E0B549D1ED080AF5EEC00AF1EE10FA45
:1056C00002DDD1ED080A04E0AF49D1ED080AF1EEA0
:1056D000600AB1EE081AF4EEC10AF1EE10FA07D230
:1056E00000EB8011490000EE901AB8EEE00A42E0AB
:1056F000A549D1ED080AF5EEC00AF1EE10FA02DD77
:10570000D1ED080A04E0A049D1ED080AF1EE600AE3
:10571000B2EE001AF4EEC10AF1EE10FA06D2AD2193
:10572000414300EE901AB8EEE00A24E09649D1ED2C
:10573000080AF5EEC00AF1EE10FA02DDD1ED080A12
:1057400004E09149D1ED080AF1EE600AB2EE041AC4
:10575000F4EEC10AF1EE10FA06D2D821414300EE70
:10576000901AB8EEE00A06E000EB8011890000EE26
:10577000901AB8EEE00A704770B52DED108B054613
:105780000C46F0EE408AB0EE609A38EEC90AF0EEB0
:10579000409A208800EE100AB8EE400A20EE290A4E
:1057A000F0EE40EA7A48D0ED000A89EEA00A794886
:1057B000D0ED000A30EE200A80ED000ADFED760A17
:1057C00090ED000A00F03CFC724880ED000A6E4843
:1057D00090ED0C0AD4ED020A20EE200ADFED6F0AEC
:1057E00020EE200AB0EE40FA94ED010A6948D0EDAF
:1057F000000A60EE200A9FED691AB0EE6E0A00EE14
:10580000810A30EE0F0A604880ED120AD0ED120ACC
:10581000B0EE600ADFED620A00F012FC5A4890ED2B
:105820000C0A10EE101A084602F04CFE41EC100B68
:10583000B0EE40DAF0EE60DA9FED5A0B53EC102B2D
:1058400051EC1D0B02F09FFD41EC100BB0EE40BA85
:10585000F0EE60BA4C4890ED120A10EE101A0846AD
:1058600002F030FE41EC100BB0EE40CAF0EE60CA20
:1058700053EC1B2B51EC1C0B02F00DFD41EC100BFB
:10588000B0EE40AAF0EE60AA51EC1A0B02F02DFE29
:105890000EEE100A9FED410A6EEE000AA08900EE9E
:1058A000100AB8EE400A20EE800AB0EE408A9FED62
:1058B0003F0AB4EEC08AF1EE10FA04DD9FED3B0A18
:1058C000B0EE408A0AE09FED3A0AB4EEC08AF1EEEB
:1058D00010FA03D29FED360AB0EE408A012D2BD18B
:1058E0002548B0F87200012822D16FF063003149D9
:1058F0000880FFF78CFE2F48B0F9000000EE900AF8
:10590000F8EEE00A30EE200ABDEEC00A10EE100AF2
:1059100000B2284908800846B0F9000000EE100ADD
:10592000B8EEC00A38EE000A174880ED130A08E006
:10593000154880ED138A04E09FED140A124880EDAB
:10594000130A0120BDEC108B70BD0246B0EE401A68
:1059500071EE603AB0EE632A088803EE900AF8EE22
:10596000633A63EE823AF0EE632A1348D0ED0C3AC4
:1059700091ED024A22E00000249E0008BC000020B5
:1059800088050020D4000020E8040020000000006A
:105990001C01002024010020000016430AD7233CEC
:1059A00000401C46000000000000F03F0000FA46E6
:1059B0000000FAC6200100203805002063EE843A7A
:1059C0001FED0A4A63EE843AB0EE633A72EE833A10
:1059D000C0ED123AD0ED123A90ED0C4A73EEC43A93
:1059E000F0EE631A5FED133A21EEA34A888903EEC5
:1059F000900AF8EE633A64EE233AB0EE630A5FED84
:105A0000153AB4EEE30AF1EE10FA04DD5FED193A4F
:105A1000B0EE630A0AE05FED1A3AB4EEE30AF1EE83
:105A200010FA03D25FED1E3AB0EE630A012A03D1E9
:105A30002E4880ED130A04E05FED2C3A2B48C0EDB0
:105A4000133A0120704710B504461CB9002000F03D
:105A5000DCF910BDFFF7CEF9254890ED070AF0EE0E
:105A6000400A1FED360A23490120FFF785FE1F4833
:105A700090ED070AF0EE400A1FED3C0A1E49012096
:105A8000FFF763FF012000F0C0F900BFE1E710B5A8
:105A900086B040F2FF10019000208DF80C008DF8C8
:105AA0000D0008208DF80E0000208DF80F00002159
:105AB0008DF810108DF811108DF812108DF813104C
:105AC0008DF8141004218DF8151000218DF8161092
:105AD00001A90A48FCF7C2F8044600BF214607485E
